{
  "transactions": [
    {
      "hash": "0xf1ecc3f51a7c3e0db71efa668ebbc1b6e401c37b8f0bfcc3bdc75091884b043f",
      "transactionType": "CALL",
      "contractName": null,
      "contractAddress": "0x157e68fbdd7d8294baded37d876aeb7765986681",
      "function": "updateFeeDistribution(uint256,uint256,uint256)",
      "arguments": [
        "6000",
        "3000",
        "1000"
      ],
      "transaction": {
        "from": "0x722550bb8ec6416522afe9eaf446f0de3262f701",
        "to": "0x157e68fbdd7d8294baded37d876aeb7765986681",
        "gas": "0xdb56",
        "value": "0x0",
        "input": "0x7e74422e00000000000000000000000000000000000000000000000000000000000017700000000000000000000000000000000000000000000000000000000000000bb800000000000000000000000000000000000000000000000000000000000003e8",
        "nonce": "0x292",
        "chainId": "0x14a34"
      },
      "additionalContracts": [],
      "isFixedGasLimit": false
    },
    {
      "hash": "0xdc54d28ea0eb73bfeabf0df95548389ed794285be64399690fbd00b5277b2302",
      "transactionType": "CALL",
      "contractName": null,
      "contractAddress": "0x157e68fbdd7d8294baded37d876aeb7765986681",
      "function": "updateAddresses(address,address)",
      "arguments": [
        "0x69FFE0989234971eA2bc542c84c9861b0D8F9b17",
        "0x722550Bb8Ec6416522AfE9EAf446F0DE3262f701"
      ],
      "transaction": {
        "from": "0x722550bb8ec6416522afe9eaf446f0de3262f701",
        "to": "0x157e68fbdd7d8294baded37d876aeb7765986681",
        "gas": "0xb621",
        "value": "0x0",
        "input": "0xc1d1103700000000000000000000000069ffe0989234971ea2bc542c84c9861b0d8f9b17000000000000000000000000722550bb8ec6416522afe9eaf446f0de3262f701",
        "nonce": "0x293",
        "chainId": "0x14a34"
      },
      "additionalContracts": [],
      "isFixedGasLimit": false
    }
  ],
  "receipts": [
    {
      "status": "0x1",
      "cumulativeGasUsed": "0x1183271",
      "logs": [
        {
          "address": "0x157e68fbdd7d8294baded37d876aeb7765986681",
          "topics": [
            "0xc2598ee1064d25a35cc42ae49954377c76f68eb4289b1825844a9f751bcae152"
          ],
          "data": "0x00000000000000000000000000000000000000000000000000000000000017700000000000000000000000000000000000000000000000000000000000000bb800000000000000000000000000000000000000000000000000000000000003e8",
          "blockHash": "0x53fea30968765adec4415555af0869094ebac5b74e50ef5f792f382fd19df71a",
          "blockNumber": "0x1eee84d",
          "blockTimestamp": "0x68f12f7a",
          "transactionHash": "0xf1ecc3f51a7c3e0db71efa668ebbc1b6e401c37b8f0bfcc3bdc75091884b043f",
          "transactionIndex": "0x2f",
          "logIndex": "0x12e",
          "removed": false
        }
      ],
      "logsBloom": "0x00000000000000000000000000000000000000000000000000000000000000000000000000000000000000000000000000000000000000000000000000000000040000000002000000000000000000000000000000000000000000000000000000000004000000000000000000000000000000000000000000000000000000000000000000000000000000000000000000000000000000000000000000000000000000000000000000000000000000000000000000000000000000000000000000000000000000000000000000000010000000000000000000000000000000000000000000000000000000000000000000000000800000000400000000000000",
      "type": "0x2",
      "transactionHash": "0xf1ecc3f51a7c3e0db71efa668ebbc1b6e401c37b8f0bfcc3bdc75091884b043f",
      "transactionIndex": "0x2f",
      "blockHash": "0x53fea30968765adec4415555af0869094ebac5b74e50ef5f792f382fd19df71a",
      "blockNumber": "0x1eee84d",
      "gasUsed": "0x95fa",
      "effectiveGasPrice": "0xf428e",
      "from": "0x722550bb8ec6416522afe9eaf446f0de3262f701",
      "to": "0x157e68fbdd7d8294baded37d876aeb7765986681",
      "contractAddress": null,
      "l1BaseFeeScalar": "0x44d",
      "l1BlobBaseFee": "0x1",
      "l1BlobBaseFeeScalar": "0xa118b",
      "l1Fee": "0x61",
      "l1GasPrice": "0x9",
      "l1GasUsed": "0x640"
    },
    {
      "status": "0x1",
      "cumulativeGasUsed": "0x1195743",
      "logs": [
        {
          "address": "0x157e68fbdd7d8294baded37d876aeb7765986681",
          "topics": [
            "0xc651c70f44278e4b6b346230d2fcc09308ad801d6dc8b9c055f45581b3609075"
          ],
          "data": "0x00000000000000000000000069ffe0989234971ea2bc542c84c9861b0d8f9b17000000000000000000000000722550bb8ec6416522afe9eaf446f0de3262f701",
          "blockHash": "0x53fea30968765adec4415555af0869094ebac5b74e50ef5f792f382fd19df71a",
          "blockNumber": "0x1eee84d",
          "blockTimestamp": "0x68f12f7a",
          "transactionHash": "0xdc54d28ea0eb73bfeabf0df95548389ed794285be64399690fbd00b5277b2302",
          "transactionIndex": "0x31",
          "logIndex": "0x130",
          "removed": false
        }
      ],
      "logsBloom": "0x00000000000000000000000000000000000000000000000000000000000000000000000000000000000000000000000000000000000000000000000000000000000000000000000000000000000000000000000000000000000000000000000000000004000000000000000000000000010000000000000000000000000000000000000000000000000000000000000000000000000000000000000000000000000000000000000000000000010000000000000000000000000000000000000000000000000000000000000000000410000000000000000000000000000000000000000000000000000000000000000000000000800000000000000000000000",
      "type": "0x2",
      "transactionHash": "0xdc54d28ea0eb73bfeabf0df95548389ed794285be64399690fbd00b5277b2302",
      "transactionIndex": "0x31",
      "blockHash": "0x53fea30968765adec4415555af0869094ebac5b74e50ef5f792f382fd19df71a",
      "blockNumber": "0x1eee84d",
      "gasUsed": "0x83dd",
      "effectiveGasPrice": "0xf428e",
      "from": "0x722550bb8ec6416522afe9eaf446f0de3262f701",
      "to": "0x157e68fbdd7d8294baded37d876aeb7765986681",
      "contractAddress": null,
      "l1BaseFeeScalar": "0x44d",
      "l1BlobBaseFee": "0x1",
      "l1BlobBaseFeeScalar": "0xa118b",
      "l1Fee": "0x61",
      "l1GasPrice": "0x9",
      "l1GasUsed": "0x647"
    }
  ],
  "libraries": [],
  "pending": [],
  "returns": {},
  "timestamp": 1760636793,
  "chain": 84532,
  "commit": "c2c99fd"
}