{
  "transactions": [
    {
      "hash": "0x979bf2dfe63ec43be2361daadf93028010de35d5fae2a73f547770010d9d68b0",
      "transactionType": "CALL",
      "contractName": null,
      "contractAddress": "0x94fbb9c6c854599c7562c282eada4889115ccd8e",
      "function": "setExecutorStatus(address,bool)",
      "arguments": [
        "0x6D91332E27a5BddCe9486ad4e9cA3C319947a302",
        "true"
      ],
      "transaction": {
        "from": "0x722550bb8ec6416522afe9eaf446f0de3262f701",
        "to": "0x94fbb9c6c854599c7562c282eada4889115ccd8e",
        "gas": "0x98b3",
        "value": "0x0",
        "input": "0x62bb2f400000000000000000000000006d91332e27a5bddce9486ad4e9ca3c319947a3020000000000000000000000000000000000000000000000000000000000000001",
        "nonce": "0x23",
        "chainId": "0x14a34"
      },
      "additionalContracts": [],
      "isFixedGasLimit": false
    },
    {
      "hash": "0x5b0977f12232226c587ae6d0b22920a05090e03a2426fa22af08c69f45cae354",
      "transactionType": "CALL",
      "contractName": null,
      "contractAddress": "0x94fbb9c6c854599c7562c282eada4889115ccd8e",
      "function": "setExecutorStatus(address,bool)",
      "arguments": [
        "0x722550Bb8Ec6416522AfE9EAf446F0DE3262f701",
        "true"
      ],
      "transaction": {
        "from": "0x722550bb8ec6416522afe9eaf446f0de3262f701",
        "to": "0x94fbb9c6c854599c7562c282eada4889115ccd8e",
        "gas": "0x1135f",
        "value": "0x0",
        "input": "0x62bb2f40000000000000000000000000722550bb8ec6416522afe9eaf446f0de3262f7010000000000000000000000000000000000000000000000000000000000000001",
        "nonce": "0x24",
        "chainId": "0x14a34"
      },
      "additionalContracts": [],
      "isFixedGasLimit": false
    }
  ],
  "receipts": [
    {
      "status": "0x1",
      "cumulativeGasUsed": "0xaeaf8",
      "logs": [
        {
          "address": "0x94fbb9c6c854599c7562c282eada4889115ccd8e",
          "topics": [
            "0x30c725953bc8f9ca291624529c097bcd50a099bc6bf31ee4713c3fbcf4d15002",
            "0x0000000000000000000000006d91332e27a5bddce9486ad4e9ca3c319947a302"
          ],
          "data": "0x00000000000000000000000000000000000000000000000000000000000000010000000000000000000000000000000000000000000000000000000068e96bda",
          "blockHash": "0x9f920fb5cb71c5fa7fd70d5976c6a1859f3dd863ad88434d5b4e45f90680fa1e",
          "blockNumber": "0x1eb067d",
          "blockTimestamp": "0x68e96bda",
          "transactionHash": "0x979bf2dfe63ec43be2361daadf93028010de35d5fae2a73f547770010d9d68b0",
          "transactionIndex": "0x2",
          "logIndex": "0x0",
          "removed": false
        }
      ],
      "logsBloom": "0x00000000000000000000000020000000000080000000000000000000000401000000000000000000000000000010000000000000000000000000000000000000000000000000000000000000000000000000000100000000000000000000080000000000000000000000000000000000000000000000000000000000000000000400000000000000000000000000000000000000000000000000000000000000000004000000000000000000000000000000000000000000000000000000000000000000000000000000000000000000000000000000000000000000000000000000000000000000000000000000000000000000000000000000000000000000",
      "type": "0x0",
      "transactionHash": "0x979bf2dfe63ec43be2361daadf93028010de35d5fae2a73f547770010d9d68b0",
      "transactionIndex": "0x2",
      "blockHash": "0x9f920fb5cb71c5fa7fd70d5976c6a1859f3dd863ad88434d5b4e45f90680fa1e",
      "blockNumber": "0x1eb067d",
      "gasUsed": "0x6e8e",
      "effectiveGasPrice": "0xf42b6",
      "from": "0x722550bb8ec6416522afe9eaf446f0de3262f701",
      "to": "0x94fbb9c6c854599c7562c282eada4889115ccd8e",
      "contractAddress": null,
      "l1BaseFeeScalar": "0x44d",
      "l1BlobBaseFee": "0x1",
      "l1BlobBaseFeeScalar": "0xa118b",
      "l1Fee": "0xdd1",
      "l1GasPrice": "0xd1",
      "l1GasUsed": "0x640"
    },
    {
      "status": "0x1",
      "cumulativeGasUsed": "0xba742",
      "logs": [
        {
          "address": "0x94fbb9c6c854599c7562c282eada4889115ccd8e",
          "topics": [
            "0x30c725953bc8f9ca291624529c097bcd50a099bc6bf31ee4713c3fbcf4d15002",
            "0x000000000000000000000000722550bb8ec6416522afe9eaf446f0de3262f701"
          ],
          "data": "0x00000000000000000000000000000000000000000000000000000000000000010000000000000000000000000000000000000000000000000000000068e96bda",
          "blockHash": "0x9f920fb5cb71c5fa7fd70d5976c6a1859f3dd863ad88434d5b4e45f90680fa1e",
          "blockNumber": "0x1eb067d",
          "blockTimestamp": "0x68e96bda",
          "transactionHash": "0x5b0977f12232226c587ae6d0b22920a05090e03a2426fa22af08c69f45cae354",
          "transactionIndex": "0x3",
          "logIndex": "0x1",
          "removed": false
        }
      ],
      "logsBloom": "0x00000000040000000000000020000000000080000000000000000000000001000000000000000000000000000000010000000000000000000000000000000000000000000000000000000000000000000000000000000000000000000000080000000000000000000000000000000000000000000000000000000000000000000400000000000000000000000000000000000000000000000000000000000000000004000000000000000000000000000000000000000000000000000000000000000000000000000000000000000000000000000000000000000000000000000000000000000000000000000000000000000000000000000000000000000100",
      "type": "0x0",
      "transactionHash": "0x5b0977f12232226c587ae6d0b22920a05090e03a2426fa22af08c69f45cae354",
      "transactionIndex": "0x3",
      "blockHash": "0x9f920fb5cb71c5fa7fd70d5976c6a1859f3dd863ad88434d5b4e45f90680fa1e",
      "blockNumber": "0x1eb067d",
      "gasUsed": "0xbc4a",
      "effectiveGasPrice": "0xf42b6",
      "from": "0x722550bb8ec6416522afe9eaf446f0de3262f701",
      "to": "0x94fbb9c6c854599c7562c282eada4889115ccd8e",
      "contractAddress": null,
      "l1BaseFeeScalar": "0x44d",
      "l1BlobBaseFee": "0x1",
      "l1BlobBaseFeeScalar": "0xa118b",
      "l1Fee": "0xdd1",
      "l1GasPrice": "0xd1",
      "l1GasUsed": "0x640"
    }
  ],
  "libraries": [],
  "pending": [],
  "returns": {},
  "timestamp": 1760127961,
  "chain": 84532,
  "commit": "6b18d27"
}